:1000000044C0FBC35DC05CC05BC05AC059C058C08F
:1000100057C056C055C054C053C052C051C050C044
:100020004FC04EC04DC00902120001010080C80936
:10003000040000000000000012011001FF00000891
:10004000030430C60001010200011A0344006F00DE
:1000500063006B00530074006100720020004C00CC
:100060004300440022035200610075006D005A00F5
:100070006500690074004C00610062006F0072004E
:100080002E00640065000403090411241FBECFE59F
:10009000D4E0DEBFCDBF10E0A0E6B0E0EEE2F6E1D6
:1000A00002C005900D92A438B107D9F710E0A4E87A
:1000B000B0E001C01D92AE3BB107E1F73ED2B6CA37
:1000C0009FCF9BBD8ABD0895AF92BF92CF92DF9222
:1000D000EF92FF920F931F93AC01A99AAA9827E081
:1000E00030E0CA01022E02C0959587950A94E2F786
:1000F00080FF02C0A89A01C0A898A998A99A215087
:10010000304037FFEECFAA9ACB01AA2797FDA095E2
:10011000BA2FBC01CD01D0D75B016C0120E030E0EB
:100120004AE755E420D67B018C0120E030E040E82E
:100130005FE391D788231CF4E1E0F0E027C020E0E2
:100140003FEF4FE757E4C801B70123D71816C4F4AF
:1001500020E030E040E251E4C601B50104D6DC0104
:10016000CB01BC01CD015DD4DC01CB01FC01892BAD
:1001700079F080E991E00197F1F73197D1F708C064
:10018000C801B7014ED4DC01CB01FC013197F1F776
:100190001F910F91FF90EF90DF90CF90BF90AF90A5
:1001A0000895AC9891DF0895CF93DF93EC018034EC
:1001B0009105B8F424E0959587952A95E1F7837029
:1001C00090706EE170E08065ECDF6EE170E089E6D2
:1001D00090E0E7DFCF70D0706EE170E0CE01806715
:1001E000E0DFDF91CF9108958430910520F46EE136
:1001F00070E08863D6DF089580919000909191001F
:1002000020918A0030918B00822B932B20918E00BD
:1002100030918F00822B932B6EE170E08860C1DFFC
:100220000895809192009091930082609093930042
:10023000809392006EE170E0B4DF089561E070E0B9
:10024000CB01AFDF08950F931F93CF93DF93C4EFDC
:10025000D1E080E991E00197F1F72197D1F781E0B2
:1002600090E0C2DF6EE170E08DE190E09ADF809176
:100270008C0090918D0098DF04E010E010939100C5
:1002800000939000D0938B00C0938A00D0938F008E
:10029000C0938E00B1DF1093930000939200CEDFE5
:1002A000C0DFDF91CF911F910F910895A09AA89A76
:1002B000A19AA99AA29AAA9AA49AAC9AB99A80E207
:1002C00090E090938D0080938C0081E88FBD81E059
:1002D0008EBDB9DF0895AC9A62E070E0F5DE089556
:1002E00061E070E082E090E05CDF089520E030E0C3
:1002F0008031910504F563307105ECF461307105CE
:1003000061F0623071051CF4672B29F00FC0623078
:10031000710539F00BC09C0107C09C01205F3F4F65
:1003200003C09C01205E3F4F2F77307061E070E08A
:10033000C901806836DF08951092910010929000F4
:100340005BDF089584E090E09093910080939000AB
:1003500053DF089510928B0010928A004DDF0895AC
:1003600082E090E090938B0080938A0045DF0895AF
:1003700010928F0010928E003FDF089581E090E090
:1003800090938F0080938E0037DF089580E090E097
:100390002BDF6EE170E088E190E003DF089580E0FC
:1003A00090E022DF6EE170E08CE190E0FADE0895EB
:1003B00080919200909193008D7F90939300809311
:1003C00092006EE170E0EDDE0895809192009091D0
:1003D0009300816090939300809392006EE170E0AF
:1003E000E0DE089580919200909193008E7F90932B
:1003F0009300809392006EE170E0D3DE0895CF9376
:10040000DF93EC018881882339F08991992763DF94
:10041000A89588818823C9F7DF91CF9108950F931C
:100420001F93CF93DF93FC0185E890E09093A300A6
:100430008093A2008181082F03700F5F86958695B7
:100440008695282F23708695869599278230910569
:1004500041F1833091052CF4009751F0019769F038
:1004600065C08330910571F1049709F43CC05EC00A
:10047000828180938500838148C0809184002823F5
:1004800009F454C010E0101708F050C0EF01229694
:10049000899161E070E0992784DE1F5F1017C0F337
:1004A00045C080918400282309F440C010E0101753
:1004B000E8F5EF012296899199270DDF1F5F10174C
:1004C000D0F334C0822F9927009719F0019739F0A3
:1004D0002DC0828186958695992766DE27C0828108
:1004E0009927EFDD23C033272130310589F02230F1
:1004F00031051CF4232B29F019C02230310579F085
:1005000015C082E08093850088E08093860004C057
:10051000109285001092860082E090E009C081E090
:100520008093850010928600C90102C080E090E0AF
:10053000DF91CF911F910F910895CFE5D4E0DEBFF9
:10054000CDBFB4DE84E190E0BCDD81E08093840027
:1005500088E190E02FE00FB6F894A89581BD0FBE1A
:1005600021BD2BD18A9A2FEFA89580EA9FE00197B1
:10057000F1F72150C9F78A9861DE80E690E03FDF0D
:1005800028E833E180E991E00197F1F7215030400C
:10059000C9F77894A89531D0FDCF5D9BFECF8CB97B
:1005A00008958F708A3008F0895D805D99270895DD
:1005B0001F93182F82958F70F4DFEFDF812FF1DF0B
:1005C000ECDF1F9108950F931F93CF938B01C42FDE
:1005D000EFDF8AE3E2DFC150CF3F39F080E2DDDFB9
:1005E000F80181918F01E4DFF6CF8DE0D6DF8AE05C
:1005F000D4DFCF911F910F9108951F93CF93DF9375
:100600004091A400142F135017FD7DC08091A100CC
:10061000C4EBD0E0C81BD10941508091A0008F707D
:10062000BE01805FD0DF8091A0008D3209F069C0EB
:10063000183009F066C083EC809394008AE58093BB
:100640007900109289008881807619F0CE01E7DE6A
:100650004EC04DE950E02A8180939D0099819923F5
:1006600021F480939E0082E03EC0953019F42093DF
:10067000A50039C0963051F5382F8B81813021F497
:1006800032E188E390E019C0823021F432E186E261
:1006900090E013C08330A9F4222321F434E086E8EB
:1006A00090E00BC0213021F432E284E690E005C0F6
:1006B000223039F43AE18AE490E09093A3008093E9
:1006C000A20080E480938900832F11C0983019F430
:1006D00047EA50E007C0993019F42093A70003C0FF
:1006E0009A3009F481E05093A3004093A200282F90
:1006F0008F81882321F46E81621708F4262F2093BE
:100700007A001092A4008091790084FF44C0809107
:100710007A008F3F09F43FC0682F893008F068E005
:10072000861B80937A008091940098E889278093B3
:100730009400A5E9B0E06623B9F0962FE091A200FD
:10074000F091A3008091890086FF06C084918D936B
:1007500031969150D9F704C081918D939150E1F772
:10076000F093A300E093A2007727C62F693038F4F6
:1007700085E990E03ED0CC5FCC3028F401C0CEE1DA
:100780008FEF80937A00C0937900C1504C2F64E9B9
:1007900070E080E218DF44E180B3847151F441508D
:1007A000D9F74093A50040939F0060E070E08FEF81
:1007B0000ADFDF91CF911F91089585B7826085BFD1
:1007C0008BB780648BBF0895A82FB92F80E090E08D
:1007D00041E050EA609530E009C02D91822797955D
:1007E000879510F084279527305EC8F36F5FA8F3D4
:1007F0000895EADF8D939D930895CF93CFB7CF935C
:10080000DF93C395829BE9F7829B0BC0829B09C053
:10081000829B07C0829B05C0829B03C0829B01C054
:1008200089C06F93C091A100DD27C855DF4F2F937A
:1008300065E5829B03C02F916F91E6CF0F931F93C5
:100840004F9320E040E15F9300B3047102FB27F96E
:100850003F9350E03BE039C0147140642F77012F83
:100860005F5F1EC0406810B314712F7752501FC0D5
:10087000406400B32F770471D1F15F5F00C023C0E3
:10088000406210B32F77147191F15F5F00C025C0F3
:1008900004711027515012F45D5F0000115027952C
:1008A0002C3F10B3C8F614710127015027952C3F37
:1008B000C8F64227499300B3047110274F731150B3
:1008C00027952C3FA8F64695469510B3147179F0FC
:1008D0000127015027952C3F98F66B5A60F3315051
:1008E00000B3B0F600C010E41ABF002717C03B5099
:1008F0003195C31BD04010E41ABF0881033CF9F0C6
:100900000B34E9F020919F001981110F1213EDCFE4
:10091000093651F10D3211F0013E39F70093A6006E
:100920003F915F914F911F910F912F916F91CAB796
:10093000C6FD67CFDF91CF91CFBFCF9118952091A2
:10094000A600222369F31091A400112339F5343055
:100950003AF13093A4002093A0001091A1003BE055
:10096000311B3093A1001CC00091A4000130B4F4ED
:100970000AE53091790034FD14C000937900C4E990
:10098000D0E013C0052710E000C0000002BB1AC071
:10099000052710E0221F1DC010E021C04AE502C05B
:1009A00032ED432FC4E1D0E032E011B31461929AEA
:1009B00002B311BB54E120E865E320FF052702BB29
:1009C000279517951C3FF0F66695B8F7B1F720FF0D
:1009D000052702BB279517951C3FD0F6279517953D
:1009E00017FF052700001C3F02BBB0F629913A957E
:1009F00019F70B7E1091A500110FC651D04002BB14
:100A000011F010939F0010E41ABF046011B31B7E15
:100A1000402F4B7E54E05A95F1F702BB11BB42BB0D
:100A20007FCFEF92FF920F931F937B018C0120E009
:100A300030E040E05FE4DED288238CF020E030E05C
:100A400040E05FECC801B70134D1DC01CB01BC014F
:100A5000CD0193D3605070408040904803C0C801DE
:100A6000B7018BD31F910F91FF90EF900895A0E0F5
:100A7000B0E0ECE3F5E0A3C58C017B015A01DC0199
:100A80008C91823058F0FB019081923010F4A701D4
:100A90000BC1843029F4943009F4A6C0A80104C124
:100AA0009430A9F3923009F4A9C0823081F3F8019F
:100AB000C280D380FB0162817381F801248135817A
:100AC00046815781F7016480758086809780C601D2
:100AD000861B970B97FDD8C080970CF46CC06C15E3
:100AE0007D050CF0ADC0662477244301F8016181D7
:100AF000F7018181681709F499C0662309F491C050
:100B0000621A730A840A950AA401930157FDC0C0B2
:100B1000F5011182B60119012A0179018A01390111
:100B20004A0108946108710881089108FFEF6F1667
:100B3000FFEF7F06FFEF8F06FFE39F06F0F4A801AB
:100B40009701220F331F441F551F19012A01B601B7
:100B5000615070406B0179018A0139014A010894A2
:100B600061087108810891088FEF68168FEF780689
:100B70008FEF88068FE3980610F383E0D5018C93FE
:100B800057FC64C0F5012483358346835783738300
:100B90006283A50189C06F5F7F4FD401C30181705B
:100BA0009070A070B0709694879477946794682A38
:100BB000792A8A2A9B2A6C157D056CF311C008944A
:100BC000C11CD11CDA01C90181709070A070B07095
:100BD0005695479537952795282B392B4A2B5B2B14
:100BE000C616D70664F382CFF8019181FB0181819B
:100BF000981709F453CF4BE750E056C0823009F004
:100C00004DCFDA01F80188E001900D928150E1F7B3
:100C1000F8018181F70191818923F5018183A50183
:100C200043C0261937094809590970CFF501618376
:100C3000B601260D371D481D591D19012A019DCFEA
:100C40006B0120E030E040E050E050CFD201C10124
:100C5000B695A7959795879521E030E040E050E064
:100C60002222332244225522282A392A4A2A5B2A60
:100C7000F50124823582468257820894C11CD11C1A
:100C8000D382C282A50110C0909581959F4F24CF39
:100C900081E0F5018183B60150954095309521950D
:100CA0003F4F4F4F5F4F37CFCA01E2E1CDB7DEB7BD
:100CB000A2C4A0E2B0E0EEE5F6E08FC4DC01CB0117
:100CC000898F9A8FAB8FBC8F2D8F3E8F4F8F58A3FC
:100CD000BE016F5F7F4FCE01499684D38E01075FBF
:100CE0001F4FB801CE014D967DD3AE014F5E5F4FD1
:100CF000B801CE010196BBDE8FD2DC01CB01BC0175
:100D0000CD01E4E0A09685C4A0E2B0E0E9E8F6E019
:100D100064C4DC01CB01898F9A8FAB8FBC8F2D8F80
:100D20003E8F4F8F58A3BE016F5F7F4FCE01499614
:100D300059D38E01075F1F4FB801CE014D9652D394
:100D40008A8591E089278A87AE014F5E5F4FB8019F
:100D5000CE0101968CDE60D2DC01CB01BC01CD015D
:100D6000E4E0A09656C4A0E2B0E0E8EBF6E027C4C9
:100D7000DC01CB01898F9A8FAB8FBC8F2D8F3E8F7B
:100D80004F8F58A3BE016F5F7F4FCE0149962AD384
:100D900069E070E06C0F7D1FCE014D9623D3FE01FC
:100DA000319666247724430113012401898182301E
:100DB00098F09985923058F420E091818A859813B3
:100DC00021E02A8769E070E06C0F7D1FD9C0843074
:100DD00059F4923009F45BC020E091818A85981320
:100DE00021E02183BF01CCC0943009F44DC0823092
:100DF00099F3923009F3ED80FE800F8118852D85DF
:100E00003E854F855889640153016FE170E00CC045
:100E1000220F331F441F551F16950795F794E7942B
:100E20006150704077FD36C0D801C7018170907065
:100E3000A070B070892BC9F080E090E0220E331EC4
:100E4000441E551E221633064406550610F481E052
:100E500090E0AA2797FDA095BA2F8A0D9B1DAC1D87
:100E6000BD1D680E791E8A1E9B1EAA0CBB1CCC1CC5
:100E7000DD1C57FFCDCF81E090E0A0E0B0E0A82AD4
:100E8000B92ACA2ADB2AC4CF823009F095CF6BE792
:100E900070E076C0228133818B859C85280F391FB5
:100EA0002E5F3F4FA90160E091818A85981361E030
:100EB0006A8B97FE0FC02FC0CA010197AC019C013D
:100EC000660C771C881C991C57FC41C0220C331CF3
:100ED000441C551C90E0691690E0790690E0890664
:100EE00090E4990648F33C8B2B8BD401C3018F7798
:100EF0009070A070B07080349105A105B10581F1AA
:100F00006D8A7E8A8F8A988E83E0898B61E170E09A
:100F10006C0F7D1F35C02F5F3F4FA901D401C30166
:100F200081709070A070B070892B61F056944794D6
:100F30003794279480E090E0A0E0B0E8282A392A8E
:100F40004A2A5B2A9694879477946794C3CF81E06A
:100F500090E0A0E0B0E0682A792A8A2A9B2AB6CFDE
:100F600067FC05C0211431044104510449F280E4B6
:100F700090E0A0E0B0E0680E791E8A1E9B1EC0CFF4
:100F8000CB014AD1DC01CB01BC01CD01E2E1A0964D
:100F900032C3A8E1B0E0EEECF7E01FC3DC01CB0107
:100FA000898B9A8BAB8BBC8B2D8B3E8B4F8B588F49
:100FB000BE016F5F7F4FCE01419614D28E01075F55
:100FC0001F4FB801CE0145960DD28981823018F0AD
:100FD0008985823018F42FEF3FEF08C0B801CE01A9
:100FE00001967AD2282F332727FD3095C901E4E0F6
:100FF00068960FC3A8E1B0E0EFEFF7E0EEC2DC01C6
:10100000CB01898B9A8BAB8BBC8B2D8B3E8B4F8B03
:10101000588FBE016F5F7F4FCE014196E3D18E01A5
:10102000075F1F4FB801CE014596DCD18981823020
:1010300018F08985823018F42FEF3FEF08C0B8010F
:10104000CE01019649D2282F332727FD3095C901BB
:10105000E4E06896DEC2A8E1B0E0E0E3F8E0BDC2FB
:10106000DC01CB01898B9A8BAB8BBC8B2D8B3E8BA0
:101070004F8B588FBE016F5F7F4FCE014196B2D12B
:101080008E01075F1F4FB801CE014596ABD1898114
:10109000823018F08985823018F421E030E008C0F1
:1010A000B801CE01019618D2282F332727FD30959D
:1010B000C901E4E06896ADC2A8E0B0E0E1E6F8E07E
:1010C0008AC29B01AC017B018C01EE2417FDE394E5
:1010D000FF2400271127EA8221153105410551051A
:1010E00031F482E08983CE01019696D043C083E03B
:1010F00089836EE170E0CB01EE2031F579018A0140
:10110000A80197012030E0E03E07E0E04E07E0E470
:101110005E0798F479018A01EE0CFF1C001F111F75
:101120000197BC01A8019701E0E0EE16E0E0FE06A1
:10113000E0E00E07E0E41E0768F3ED82FE820F8315
:1011400018877C836B83CFCF2030E0E03E07E0E060
:101150004E07E0E85E0741F0EE24FF248701E21A23
:10116000F30A040B150BCCCF7C836B8360E070E03B
:1011700080E09FECE6E028964AC2ACE0B0E0E2EC0A
:10118000F8E02DC2DC01CB0189879A87AB87BC8749
:10119000BE016F5F7F4FCE01099624D189818230D5
:1011A00011F0823028F460E070E080E090E031C01F
:1011B000843039F02B813C8137FDF5CF2F3131055B
:1011C0006CF08A81882329F060E070E080E090E88C
:1011D00020C06FEF7FEF8FEF9FE71BC08EE190E0A5
:1011E000821B930B2D813E814F81588504C05695FB
:1011F0004795379527958A95D2F78A81882339F0C4
:1012000050954095309521953F4F4F4F5F4FCA0104
:10121000B901E2E02C96FFC1A0E0B0E0E1E1F9E025
:10122000D4C1882499245401DC01FC012481358136
:10123000468157818181082F112760E070E08C91F1
:10124000823020F46FEF70E04061A4C0843009F474
:1012500064C0823009F463C0211531054105510590
:1012600009F498C0FD0182819381FFEF82389F07C6
:101270000CF050C0A2E8EA2EAFEFFA2EE81AF90AF5
:101280008AE1E816F1040CF06BC06B0181E090E09C
:10129000A0E0B0E00E2C04C0880F991FAA1FBB1F4E
:1012A0000A94D2F70197A109B10982239323A423B9
:1012B000B5230097A105B10519F0F1E0CF2ED12C8F
:1012C00004C05695479537952795EA94D2F7C601FD
:1012D000AA2797FDA095BA2F282B392B4A2B5B2BD9
:1012E000DA01C9018F779070A070B07080349105D9
:1012F000A105B105D1F1215C3F4F4F4F5F4F203029
:10130000E0E03E07E0E04E07E0E45E0708F161E060
:1013100070E01EC0803891053CF06FEF70E020E077
:1013200030E040E050E036C0BC0161587F4FDA0148
:10133000C9018F779070A070B07080349105A105BD
:10134000B105D1F0215C3F4F4F4F5F4F57FD1BC0A0
:1013500097E056954795379527959A95D1F71AC0F6
:1013600020E030E040E050E0BBCF27FFC8CF205C5A
:101370003F4F4F4F5F4FC3CF27FFE8CF205C3F4F1A
:101380004F4F5F4FE3CF56954795379527956F5F42
:101390007F4FDECF822E932E942F9F778A2D8078D9
:1013A000A82EA92A962F9795992797958A2D8F77FA
:1013B000A82EA92A76956795962F9F778B2D8078F2
:1013C000B82EB92A902F9795992797958B2D8F77BF
:1013D000B82EB92AD501C401BC01CD01ECE0CDB7CE
:1013E000DEB70FC1CF93DF93FC01DB014081518158
:1013F0002281622F6F7770E0221F2227221F9381A4
:10140000892F880F822B282F3327991F9927991FFF
:10141000ED0199832115310541F44115510561050F
:101420007105E1F482E08C9354C02F3F310509F43B
:1014300041C02F573040FD013383228383E08C93DA
:1014400087E0440F551F661F771F8A95D1F7706498
:10145000ED014C835D836E837F833BC022E83FEFC9
:10146000F901C7E0440F551F661F771FCA95D1F7D2
:1014700083E08C93403080E0580780E0680780E488
:10148000780778F4440F551F661F771F21503040AE
:10149000F9014030C0E05C07C0E06C07C0E47C07A5
:1014A00088F3ED01FB83EA83FD0144835583668362
:1014B00077830FC0411551056105710519F484E06A
:1014C0008C9307C064FF03C081E08C93C1CF1C9252
:1014D000BFCFDF91CF9108950F931F93CF93DF93E9
:1014E000FC01DB018081823018F09C91923018F46D
:1014F00061E070E05EC08430C1F0843001F194306E
:1015000009F447C0823009F44BC0823009F44EC060
:101510009230A9F04181ED0189814817B9F0442347
:1015200089F08FEF9FEFBC0144C0943031F7EB019D
:101530008981682F77278181681B71093AC0818171
:10154000882379F781E090E0BC0133C022813381A8
:10155000ED018A819B81821793070CF328173907C5
:101560009CF00481158126813781FD01648175819C
:1015700086819781601771078207930780F20617AB
:1015800017072807390778F4442359F281E090E0DF
:10159000DBCFFD018181882321F281E090E0D4CF6F
:1015A000923009F0B2CF60E070E003C0ED018981B4
:1015B000F2CFCB01DF91CF911F910F9108952F9220
:1015C0003F924F925F926F927F928F929F92AF92D3
:1015D000BF92CF92DF92EF92FF920F931F93CF9320
:1015E000DF93CDB7DEB7CA1BDB0B0FB6F894DEBFB7
:1015F0000FBECDBF09942A88398848885F846E84DD
:101600007D848C849B84AA84B984C884DF80EE8026
:10161000FD800C811B81AA81B981CE0FD11D0FB62F
:0E162000F894DEBF0FBECDBFED010895FFCFE1
:10162E0057616974696E6720666F72206C636434EB
:10163E006C696E75782E2E2E005AFF000000000089
:04164E000000000098
:00000001FF
